:020000040800F2
:1000000070070024390300084F2800081B27000848
:100010004D28000871050008253300080000000085
:10002000000000000000000000000000952A000809
:10003000730500080000000051280008972A0008F6
:100040005303000853030008530300085303000838
:100050005303000853030008530300085303000828
:100060005303000853030008530300085303000818
:100070005303000853030008530300085303000808
:1000800053030008530300085303000853030008F8
:1000900053030008530300085303000853030008E8
:1000A00053030008530300085303000853030008D8
:1000B00053030008530300085303000853030008C8
:1000C00053030008530300085303000853030008B8
:1000D00053030008530300085303000853030008A8
:1000E00053030008530300080000000053030008F6
:1000F0005303000853030008530300085303000888
:100100005303000853030008530300085303000877
:10011000FD2C00085303000853030008252C000899
:100120005303000853030008530300085303000857
:100130005303000853030008530300085303000847
:1001400000000000000000000000000000000000AF
:100150005303000853030008530300085303000827
:100160005303000853030008530300085303000817
:100170005303000853030008530300085303000807
:1001800053030008530300085303000853030008F7
:1001900053030008530300085303000853030008E7
:1001A00053030008530300085303000853030008D7
:1001B00053030008530300085303000853030008C7
:1001C00053030008530300085303000853030008B7
:1001D00053030008530300085303000853030008A7
:1001E0005303000853030008530300085303000897
:1001F0005303000853030008530300085303000887
:100200005303000853030008530300085303000876
:100210005303000853030008530300085303000866
:1002200053030008530300085303000800000000B4
:1002300053030008530300080000000053030008A4
:100240005303000853030008530300085303000836
:100250005303000853030008530300085303000826
:100260005303000853030008530300085303000816
:100270005303000853030008530300080000000064
:100280005303000853030008530300080000000054
:10029000000000005303000800F002F800F03CF8F2
:1002A0000AA090E8000C82448344AAF10107DA45D1
:1002B00001D100F031F8AFF2090EBAE80F0013F0E7
:1002C000010F18BFFB1A43F001031847D830000094
:1002D000F8300000103A24BF78C878C1FAD8520725
:1002E00024BF30C830C144BF04680C6070470000B0
:1002F0000023002400250026103A28BF78C1FBD82F
:10030000520728BF30C148BF0B6070471FB503F0CC
:1003100027F81FBD10B510BD00F0D1F81146FFF74A
:10032000F5FF03F012F800F0EFF803B4FFF7F2FF67
:1003300003BC03F009F8000009488047094800475A
:10034000FEE7FEE7FEE7FEE7FEE7FEE7FEE7FEE785
:10035000FEE7FEE704480549054A064B70470000E2
:10036000412B000899020008700100247007002446
:100370007003002470030024704753EA020C00F05D
:1003800069802DE9F04B4FF00006002B1FBFB3FA38
:1003900083F503FA05F424FA05F65E4012BF16430E
:1003A000B2FA82F502FA05F4C5F120051EBF22FA61
:1003B00005FC44EA0C04203556EA044C4FEA144488
:1003C00018BF641C4FF000084FF00009904271EB19
:1003D000030C39D3002919BFB1FA81F701FA07F6E6
:1003E000B0FA80F700FA07F6C7F120071EBF20FA1F
:1003F00007FC46EA0C062037B6FBF4FCA7EB050722
:10040000103F07F01F0BCBF120060CFA0BFB2CFA68
:1004100006F644BFB3460026202FA4BF5E464FF029
:10042000000B5BEA060C08BF4FF0010B19EB0B0940
:10043000ABFB027C48EB0608C01B06FB02CC0BFBA7
:1004400003CC71EB0C01C1E70B460246414648461E
:10045000BDE8F08B13B54FF000004FF00001AFF393
:100460000080BDE81C4070474FF0000200B5134605
:1004700094469646203922BFA0E80C50A0E80C50C4
:10048000B1F12001BFF4F7AF090728BFA0E80C5075
:1004900048BF0CC05DF804EB890028BF40F8042B6E
:1004A00008BF704748BF20F8022B11F0804F18BFDB
:1004B00000F8012B704770477047704770477546CA
:1004C00000F02CF8AE4605006946534620F00700C0
:1004D000854618B020B5FFF73DFFBDE820404FF03E
:1004E00000064FF000074FF000084FF0000B21F01E
:1004F0000701AC46ACE8C009ACE8C009ACE8C009EB
:10050000ACE8C0098D46704710B50446AFF30080D3
:100510002046BDE81040FFF708BF000000487047C4
:100520000C01002408B1002070470120704708B179
:10053000002070470120704710B530B101220448F7
:10054000D10300F07DFA002010BD012010BD000095
:100550000008025810B538B1044800224FF4004199
:1005600000F06EFA002010BD012010BD00080258F6
:10057000FEE77047704702F0D1B802F0D1B8000032
:10058000014901EB00107047140000242DE9F05FD1
:1005900028B190F83510022904D08021416501204E
:1005A000BDE8F09F904C904B0168183C18338E4A80
:1005B000DFF83C92A1428D4CDFF838E28E4FDFF835
:1005C0003CB2DFF83CA28F4D8F4E31D091422FD0FC
:1005D00099422DD0A1422BD0494529D0714527D031
:1005E000B94225D0DFF810C20CF1180C61451FD0BC
:1005F000DFF808C2ACF1600C614519D0DFF8FCC12E
:10060000ACF1480C614513D0DFF8F0C1ACF1300C0F
:1006100061450DD0DFF8E4C1ACF1180C614507D09D
:10062000594505D0514503D0A94201D0B1422CD142
:10063000DFF8B4C14FF0040880F83580ACF1180C35
:1006400061451DD091421BD0994219D0A14217D0CB
:10065000494515D0714513D0B94211D066481830BC
:1006600081420DD065486038814209D063484838DE
:10067000814205D061483038814201D05F48183846
:10068000086820F001000860ABE0D1F800C02CF051
:100690000E08DFF854C1C1F80080ACF1180C0168F5
:1006A000614527D0914225D0994223D0A14221D043
:1006B00049451FD071451DD0B9421BD0DFF838C164
:1006C0000CF1180C614515D0DFF830C1ACF1600CAD
:1006D00061450FD0DFF824C1ACF1480C614509D069
:1006E000DFF818C1ACF1300C614503D0DFF80CC164
:1006F000ACF1180CD1F800C02CF0010CC1F800C00E
:10070000DFF8E4804FF0010C0168A8F118084145BA
:1007100046D0914244D0994242D0A14240D049456E
:100720003ED071453CD0B9423AD0334A183291425A
:1007300036D0324A603A914232D0304A483A9142F9
:100740002ED02E4A303A91422AD02C4A183A914261
:1007500026D0594524D0514522D0A94220D0B142BB
:100760001ED02A4A91421BD0284A1432914217D0F7
:10077000264A2832914213D0244A3C3291420FD06B
:10078000224A503291420BD0204A6432914207D023
:100790001E4A7832914203D01C4A8C32914218D1C1
:1007A000016E0A6822F480720A6090F85C20816D04
:1007B00002F01F020CFA02F24A60D0E919124A60F4
:1007C000C16E31B10A6822F480720A60D0E91C124D
:1007D0004A600022016D80F8342080F835C001B1F4
:1007E00088470020DCE60000280002405800024054
:1007F0007000024088000240A000024070040240E5
:1008000088040240A0040240B80402400854025880
:100810002DE9FC4F01257E4C00234FF0030A4FF0D9
:10082000B04E4FF00F0BEBE005FA03F637403A00FD
:1008300077D04F68012F05D0022F03D0112F01D0A0
:10084000122F1AD187684FEA4308D1F80CC00AFA70
:1008500008F927EA09070CFA08FC4CEA070CC0F86B
:1008600008C0476891F804C0B743CCF3001C0CFAE9
:1008700003FC4CEA070CC0F804C0C6684FEA430CFE
:10088000D1F80880E1460AFA0CF7BE43019708FA4E
:1008900009F848EA0608C0F80C804E68022E01D01C
:1008A000122E12D1DE084FEA437C00EB860600963A
:1008B0000F69366A4FEADC6C0BFA0CF807FA0CF792
:1008C00026EA08063743009E37620E790768DDF88E
:1008D00004C006F0030606FA09F627EA0C073E43B1
:1008E00006604E68F6001CD54A4E376847F002078E
:1008F000376036689F0706F00206009623F003066D
:1009000006F1B046B1463F0FD6F80864DFF808811B
:100910000BFA07FC404526EA0C0603D14FF0000C09
:1009200041E06CE0DFF8F4C0604502D14FF0010C0B
:1009300039E0DFF8ECC0604502D14FF0020C32E044
:10094000DFF8E0C0604502D14FF0030C2BE0DFF888
:10095000D8C0604502D14FF0040C24E0DFF8CCC0D1
:10096000604502D14FF0050C1DE0DFF8C4C06045C2
:1009700002D14FF0060C16E0DFF8B8C0604502D196
:100980004FF0070C0FE0DFF8B0C0604502D14FF028
:10099000080C08E0DFF8A4C0604502D14FF0090C54
:1009A00001E04FF00A0C0CFA07FC4CEA060CC9F8FF
:1009B00008C426684F6826EA0206FF0300D51643DE
:1009C000266066684F6826EA0206BF0300D5164314
:1009D0006660D1F804C07646DEF800705FEACC2C81
:1009E00027EA020700D517433760D1F804C07768BB
:1009F0005FEA8C2C27EA020700D5174377605B1C5F
:100A00000A681746DA407FF40FAFBDE8FC8F00009C
:100A100080000058F44402580000025800040258B4
:100A200000080258000C0258001002580014025826
:100A300000180258001C02580020025800240258D6
:100A40000AB1816170470904FBE7000001480068B2
:100A5000000C70470010005C01488068704700007F
:100A600000000024024881680278114481607047C8
:100A700000000024032010B500F0A0F801F030F8C9
:100A80000F4A104914681368C4F3032203F00F03DC
:100A90008A5CC95C02F01F0201F01F01D0400A4AC3
:100AA00020FA01F1116009490860002000F010F8F7
:100AB00008B1012010BD00F045F8002010BD000075
:100AC0001844025882330008100000240C0000244F
:100AD00010B50022014637208AB000F04FF83720C9
:100AE00000F03EF81348016841F020010160006801
:100AF00008A900F020000990684600F07DFF00F092
:100B0000CBFF0D49400000220C4CB0FBF1F10C482A
:100B100040F2E7330460C0E90332491EC0E9011224
:100B200001F001FB10B101200AB010BD044801F032
:100B30002DFBF9E7E844025840420F000014004042
:100B4000C0000024054808B5016841F002010160B9
:100B5000006800F00200009008BD0000F444025854
:100B6000002809DB410900F01F028900012001F182
:100B7000E0219040C1F80001704700000E4BF0B436
:100B80001B680D46C3F30223C3F10706042E00D9E8
:100B90000426191D072901D2002300E0DB1E0124D1
:100BA00004FA06F19C40491E2940641E99401440F5
:100BB0002143F0BC02F0B7BB0CED00E0064900F0A9
:100BC000070210B54FF6FF040868044B204040EAC6
:100BD00002201843086010BD0CED00E00000FA058B
:100BE000134970B50A68D243520705D5096801F068
:100BF0000701814213D118E00A6822F0070202437C
:100C00000A60FFF729FF0A4D4FF47A760446083D43
:100C100007E000BFFFF720FF001BB04201D9012011
:100C200070BD2868C0438004F4D4002070BD00006B
:100C30000C48025810B500F00DFF05490968054A37
:100C4000C1F30211515C01F01F01C84010BD00004A
:100C50002044025882330008494930B5484C0B1DE6
:100C60000A68143409681D68246802F00303C5F398
:100C70000012C1F30531C4F3CC04002914FB02F2C5
:100C800000EE102AF8EE400A75D03F4A9FED3D1A5B
:100C9000B7EE000A6BB1DFED3D1A012B01D0022B3C
:100CA00064D002EE101A1168F8EE422A81EEA22AF0
:100CB00021E0334C283C23689B0612D5344B246832
:100CC00001EE901A1168C4F3C104F8EE612AE34002
:100CD00001EE903AC1F30801F8EE611A81EEA22A02
:100CE0000BE001EE901ADFED2B2A00BFF8EE611A3F
:100CF000116882EEA12AC1F3080101EE901A116871
:100D0000F8EE611A40EE811A71EE800A62EE200A56
:100D1000C1F3462101EE101AB8EE411A31EE001A65
:100D2000C0EE811ABCEEE11A80ED001A1168C1F321
:100D3000064101EE101AB8EE411A31EE001AC0EE6B
:100D4000811ABCEEE11A80ED011A1168C1F3066147
:100D500001EE101AB8EE411A31EE000A80EE801A48
:100D6000BCEEC10A80ED020A30BD04E001EE901A2B
:100D7000DFED092ABAE70021016041608160F3E7F5
:100D80002844025800000039384402580024744AAC
:100D90000090D0030024744C20BCBE4B494930B5B0
:100DA000484C0B1D0A681C3409681D68246802F051
:100DB0000303C5F30022C1F30551C4F3CC04002999
:100DC00014FB02F200EE102AF8EE400A75D03F4AFA
:100DD0009FED3D1AB7EE000A6BB1DFED3D1A012B16
:100DE00001D0022B64D002EE101A1168F8EE422AEC
:100DF00081EEA22A21E0334C283C23689B0612D5C1
:100E0000344B246801EE901A1168C4F3C104F8EE63
:100E1000612AE34001EE903AC1F30801F8EE611A4D
:100E200081EEA22A0BE001EE901ADFED2B2A00BF23
:100E3000F8EE611A116882EEA12AC1F3080101EEF1
:100E4000901A1168F8EE611A40EE811A71EE800A6C
:100E500062EE200AC1F3462101EE101AB8EE411AE3
:100E600031EE001AC0EE811ABCEEE11A80ED001AD4
:100E70001168C1F3064101EE101AB8EE411A31EEC5
:100E8000001AC0EE811ABCEEE11A80ED011A116859
:100E9000C1F3066101EE101AB8EE411A31EE000AF4
:100EA00080EE801ABCEEC10A80ED020A30BD04E07B
:100EB00001EE901ADFED092ABAE7002101604160D6
:100EC0008160F3E72844025800000039404402588A
:100ED0000024744A0090D0030024744C20BCBE4B04
:100EE0002DE9FC5F044650F8241B002500902E4697
:100EF0000801FE4FDFF8F8831DD5606E50B1B0F5E4
:100F0000801F0CD0B0F5001F0ED0B0F5401F1DD0D3
:100F100001250FE0386840F40030386016E0022107
:100F2000201D01F097FC03E00098022101F022FD52
:100F300005000BD02E462088C00523D5606D0528FE
:100F40001ED2DFE800F00C11161B1B00626ED8F8F1
:100F5000001021F440111143C8F80010EBE7386885
:100F600040F40030386009E00021201D01F072FCDF
:100F700003E00098002101F0FDFC05466DB100E0A2
:100F800001252E462088800528D5A06D80281ED0FA
:100F90000CDC90B140280ED114E0626DD8F800103E
:100FA00021F007011143C8F80010EBE7C02813D067
:100FB000B0F5807F10D001250FE0386840F4003094
:100FC000386009E00021201D01F044FC03E0009896
:100FD000002101F0CFFC054695B12E462088DFF8B0
:100FE0001093400509F108092CD5D4F8A400B0F5F8
:100FF000800F20D00DDCA0B1B0F5001F0FD115E09F
:10100000A26DD8F8001021F4E0711143C8F8001067
:10101000E4E7B0F5C00F13D0B0F5000F10D00125F4
:101020000FE0386840F40030386009E00021201DEE
:1010300001F010FC03E00098002101F09BFC054644
:1010400075B12E46208800052DD5D4F8A800B0F142
:10105000007F21D00EDCA8B1B0F1807F10D116E066
:10106000D4F8A420D9F8001021F460011143C9F884
:101070000010E7E7B0F1407F13D0B0F1806F10D0DF
:1010800001250FE0386840F40030386009E00021A5
:10109000201D01F0DFFB03E00098002101F06AFC55
:1010A00005466DB12E46206880011FD5A06CD8B1D1
:1010B00010280FD0202812D0302815D0012514E098
:1010C000D4F8A820D9F8001021F0E0611143C9F844
:1010D0000010E8E7386840F40030386004E002218E
:1010E000201D01F0B7FB05466DB12E462088C004D7
:1010F0002BD5E06DB0F5005F20D00DDCA0B1B0F5D0
:10110000805F0FD115E07A48A26C001F016821F0C2
:10111000300111430160E9E7B0F5405F13D0B0F54D
:10112000804F10D001250FE0386840F4003038605F
:1011300009E00021201D01F08DFB03E00098002153
:1011400001F018FC054685B12E462088800429D57B
:10115000206EB0F5403F23D010DC08B3B0F5803FDF
:1011600014D0B0F5003F0FD115E0E26DD8F80010B3
:1011700021F4E0411143C8F80010E6E7B0F5802FF4
:101180000ED0B0F5A02F0BD001250AE00121201DC3
:1011900001F060FB03E00098012101F0EBFB054644
:1011A0008DB12E46208840042AD5D4F8AC00B0F189
:1011B000405F23D010DC08B3B0F1805F14D0B0F1F1
:1011C000005F0FD115E0226ED8F8001021F4E02165
:1011D0001143C8F80010E5E7B0F1804F0ED0B0F130
:1011E000A04F0BD001250AE00121201D01F032FBA8
:1011F00003E00098012101F0BDFB05466DB12E46CC
:10120000208800041FD5E06ED8B1B0F1805F0ED009
:10121000B0F1005F10D0012514E0D4F8AC20D9F86B
:10122000001021F0E0411143C9F80010E8E73868E8
:1012300040F40030386004E00121201D01F00AFB79
:1012400005466DB12E462068C0011ED5606CD0B138
:1012500001280ED0022811D0032814D0012513E054
:10126000E26ED8F8001021F040511143C8F8001088
:10127000E9E7386840F40030386004E00221201DBE
:1012800001F0E8FA054685B12E462068DFF85CB02B
:101290004002ABF11C0B57D51648016841F4807130
:1012A0000160FFF7D9FB82460EE01148626C001F17
:1012B000016821F0030111430160E6E7FFF7CCFB71
:1012C000A0EB0A0064283DD80A480068C005F5D59F
:1012D0007DBBDFF81CA0B4F8B0100AF1200ADAF8E0
:1012E000000001F4407100F4407005E02C44025805
:1012F0005044025800480258884211D0DAF80010D1
:10130000DAF8002021F4407142F48032CAF800205B
:10131000DAF8002022F48032CAF80020CAF800105F
:10132000D4F8B000B0F5807F21D1FFF795FB019094
:1013300019E008E0FFF790FB0199411A41F288306B
:10134000814210D903252E462078DFF830A4C0074B
:101350003DD0A06F182838D026DC80B3082829D0CB
:10136000102825D12CE0DAF800008007E2D5D4F867
:10137000B010C1F30120032858460DD0016821F4B4
:101380007C510160B4F8B020DAF80010C2F30B020F
:101390001143CAF80010D7E7F94A036802EA1112AC
:1013A00023F47C511143ECE720280ED028280CD0E0
:1013B00001250BE00121201D01F04CFA04E004E0BE
:1013C0000098012101F0D6FA05465DB12E4620783D
:1013D00080071ED5606F062819D2DFE800F0160CD2
:1013E00011161616A26FDAF8001021F03801114319
:1013F000CAF80010EBE70121201D01F02BFA03E0F1
:101400000098012101F0B6FA054675B100E001250A
:101410002E46207840071FD5D4F89000062819D210
:10142000DFE800F0160C11161616626FDAF80010DD
:1014300021F007011143CAF80010EAE70121201D3D
:1014400001F008FA03E00098012101F093FA054643
:101450009DB100E001252E46207880062BD5D4F8DA
:101460008C00B0F1405F24D011DC10B3B0F1805F8C
:1014700015D0B0F1005F10D116E0D4F89020D9F863
:10148000001021F007011143C9F80010E4E7B0F1A2
:10149000804F0ED0B0F1A04F0BD001250AE0002103
:1014A000201D01F0D7F903E00098022101F062FA53
:1014B00005468DB12E46207840062BD5D4F89800ED
:1014C000B0F5406F24D011DC10B3B0F5806F15D0AB
:1014D000B0F5006F10D116E0D4F88C20DAF80010C7
:1014E00021F0E0411143CAF80010E4E7B0F5805F55
:1014F0000ED0B0F5A05F0BD001250AE00021201D21
:1015000001F0A8F903E00098022101F033FA054642
:101510008DB12E46207800062BD5D4F89C00B0F56E
:10152000C04F24D011DC10B3B0F5005F15D0B0F57A
:10153000804F10D116E0D4F89820D9F8001021F48B
:10154000E0511143C9F80010E4E7B0F5004F0ED0A8
:10155000B0F5204F0BD001250AE00021201D01F03D
:1015600079F903E00098022101F004FA05464DB133
:101570002E46207800071ED5D4F88000B0F5805F95
:101580000AD00FE0D4F89C20D9F8001021F4604173
:101590001143C9F80010ECE70098022101F0EAF9C4
:1015A00000B10126D4F88020DAF8001021F440516F
:1015B0001143CAF800102078C00613D5D4F894005F
:1015C000B0F5807F05D10098022101F0D3F900B178
:1015D0000126D4F89420D9F8001021F44071114369
:1015E000C9F800102068000316D5D4F8A00038B15F
:1015F000B0F5803F09D0B0F5003F0BD001250AE0DF
:101600000021201D01F026F903E00098022101F0DD
:10161000B1F9054685B12E462068400322D5D4F89D
:101620008400B0F5801F11D0B0F5001F13D0B0F5C5
:10163000401F15D0012514E0D4F8A020D9F80010DF
:1016400021F440311143C9F80010E5E7386840F44F
:101650000030386004E00098012101F08BF9054664
:1016600055B12E462068C0031CD5E06C70B1B0F5B2
:10167000803F10D0012514E0D4F88420DAF800105F
:1016800021F440111143CAF80010EBE7386840F428
:101690000030386004E00221201D01F0DBF805462F
:1016A000CDB12E462068800005D50098022101F0BA
:1016B00061F900B10126206880031BD5E06FB8B145
:1016C000B0F5807F10D0B0F5007F11D0B0F5407F2D
:1016D0000ED001250DE02948E26C0838016821F49C
:1016E000803111430160DDE7386840F40030386034
:1016F000F5B32E462068C00207D5226FD8F8001037
:1017000021F000411143C8F800102068C00008D53E
:10171000D4F8B420DBF8001021F480411143CBF859
:1017200000102068800207D5A26ED8F8001021F0C2
:1017300080711143C8F80010206840000CD5DBF818
:10174000001021F40041CBF80010DBF80010D4F8B1
:10175000B8201143CBF800102068002807DA0748AA
:10176000226D0838016821F040511143016000E00A
:1017700008E086B10120BDE8FC9F000054440258F7
:10178000CFFFFF00E26FDAF8001021F4407111433F
:10179000CAF80010AEE70020EDE700002DE9F05F89
:1017A00004000F467ED0DFF83882D8F8000000F041
:1017B0000F00B8420CD2D8F8001021F00F013943C5
:1017C000C8F80010D8F8000000F00F00B84269D146
:1017D0002078844D40070AD52069296801F07001FE
:1017E000884204D9296821F07001014329602078DA
:1017F0007C4E361D00070AD56069316801F0700122
:10180000884204D9316821F07001014331602078A9
:10181000C0060AD5A069316801F4E061884204D9A4
:10182000316821F4E061014331602078DFF8B4B120
:1018300080060BF1080B0CD5E1695846DBF8002057
:1018400002F07002914204D9026822F070020A4349
:101850000260207880070AD5E068296801F00F014E
:10186000884204D9296821F00F01014329602078BA
:10187000C0073ED05B49A2682868183920F4706020
:10188000104328606068022818D0032819D009681E
:10189000012819D0490700294ADADFF848A1AAF13E
:1018A000080A00E044E0DAF8002022F007020243D0
:1018B000CAF80020FFF7D0F8814612E009688903D2
:1018C000E9E709688901E6E7C905E4E7FFF7C4F835
:1018D000A0EB090141F28830814202D90320BDE822
:1018E000F09F6168DAF8000000F03800B0EBC10F3B
:1018F000ECD1207880070AD5E068296801F00F0153
:10190000884204D2296821F00F0101432960D8F8E8
:101910000010404601F00F01B9420BD9016821F0D7
:101920000F0139430160006800F00F00B84201D098
:101930000120D4E7207840070AD52069296801F002
:101940007001884204D2296821F0700101432960A6
:10195000207800070AD56069316801F0700188427B
:1019600004D2316821F07001014331602078C00653
:101970000AD5A069316801F4E061884204D2316877
:1019800021F4E06101433160207880060CD5E169E3
:101990005846DBF8002002F07002914204D202683F
:1019A00022F070020A43026000F09AF80E492A6899
:1019B0002B68C2F3032203F00F038A5CC95C02F0B8
:1019C0001F0201F01F01D040084A20FA01F1116006
:1019D0000749086007480068BDE8F05FFFF778B87E
:1019E00000200052184402588233000810000024DE
:1019F0000C0000240400002470B5144C3F22026047
:101A0000124A24680832131D114D04F00704446083
:101A100016681C1D06F470668660166806F00F06D0
:101A2000C660126802F0700202611A6802F0700269
:101A300042611A6802F4E0628261226802F0700278
:101A4000C261286800F00F00086070BD10440258A1
:101A50000020005230B500F043F80B4A0B490C4B04
:101A600015681468C5F3032204F00F048A5C095D4D
:101A700002F01F0201F01F01D040064A20FA01F1D6
:101A800019601060084630BD1844025882330008BF
:101A9000100000240C00002400B5FFF7DBFF05490F
:101AA0000968054AC1F30211515C01F01F01C840E9
:101AB00000BD00001C4402588233000800B5FFF747
:101AC000C9FF05490968054AC1F30221515C01F0CB
:101AD0001F01C84000BD00001C44025882330008AA
:101AE000454970B545480968434B103B11F0380231
:101AF00008D00111082A03D0102A0BD0182A0BD0C5
:101B0000084670BD19688906FBD51968C1F3C10183
:101B1000C84070BD3A4870BD3749374D18310C1D6B
:101B200024350A68096826682D6802F0030406F067
:101B30000102C1F30511C5F3CC0515FB02F200EE5D
:101B4000102AB8EE400AE9B32F4ADFED2E0AB7EEAD
:101B5000001A6CB1DFED2D1A012C01D0022C43D0FC
:101B600002EE101A1068F8EE422A81EEA22A1EE058
:101B70001C68A40611D51B6801EE901A1168C3F306
:101B8000C103F8EE612AD84001EE900AC1F30800C3
:101B9000F8EE611A81EEA22A0BE001EE901ADFED59
:101BA0001C2A00BFF8EE611A106882EEA12AC0F369
:101BB000080001EE900AF8EE611A40EE201A31EEAC
:101BC000810A00E015E022EE000A1068C0F346200A
:101BD000401C00EE900AF8EE600A80EE201ABCEE7F
:101BE000C10A10EE100A70BD01EE901ADFED092A4D
:101BF000D8E7002070BD0000104402580090D003C8
:101C000040787D0100000039304402580024744AB5
:101C10000024744C20BCBE4B2DE9F05F04007CD046
:101C2000FF4F2078FE4D1837DFF8F493103DC007C2
:101C300048D0D9F80000396800F03800102815D0D5
:101C4000182803D101F0030002280FD06068B0F516
:101C5000803F12D010B1B0F5A02F18D0286820F422
:101C600080302860286820F4802009E028688003FC
:101C700028D560680028D2D024E0286840F480305D
:101C80002860606888B1FEF7E7FE064609E028682C
:101C900040F480202860F0E7FEF7DEFE801B642819
:101CA0007ED828688003F7D50CE0FEF7D5FE0646FF
:101CB00005E000BFFEF7D0FE801B6428F0D828683E
:101CC0008003F7D4207841F20308D54E0C3E8007FC
:101CD00053D5D9F80000396810F038000ED0182814
:101CE00001D188070AD0E068A8B3296821F019015A
:101CF00001432960FEF7B0FE82461BE028684007DA
:101D000002D5E06800288AD0FEF7A0FE40451BD827
:101D10002069402812D0316800E0CCE021F47C3109
:101D200041EA0030306028E0FEF796FEA0EB0A00A2
:101D30000228B5D828684007F6D5E5E7306820F4D2
:101D40007C3040F40030EDE7207C316821F0FE412A
:101D500041EA0060E6E7FFE7286820F0010028601C
:101D6000FEF77AFE824605E0FEF776FEA0EB0A005B
:101D7000022895D828684007F6D42078C0065FD599
:101D8000D9F80000DFF898B2396800F03800ABF1FC
:101D9000040B082812D0182805D101F0030000E038
:101DA000EAE001280AD0E0690028286838D040F02D
:101DB00080002860FEF750FE824623E02868C005B8
:101DC00023D5E069802876D11FE0206A202821D021
:101DD000316821F0F84141EA8060306030E000BFB6
:101DE00094F82010DBF8002022F07C5242EA0161D6
:101DF000CBF8001024E000BFFEF72EFEA0EB0A0097
:101E0000022896D82868C005F6D5FEF71FFE404583
:101E1000E6D8DAE7306820F0F84040F08040DCE7B0
:101E200020F080002860FEF717FE064605E000BFA0
:101E3000FEF712FE801B02289BD82868C005F7D445
:101E40002078000729D576486169643000298046EA
:101E5000016811D041F001010160FEF7FDFD064669
:101E600005E000BFFEF7F8FD801B0228C9D8D8F8AE
:101E700000008007F6D510E021F001010160FEF7B7
:101E8000EBFD064605E000BFFEF7E6FD801B0228DD
:101E900072D8D8F800008007F6D42078800623D5C1
:101EA000A0690028286810D040F480502860FEF710
:101EB000D3FD064605E02CE1FEF7CEFD801B02288F
:101EC0005AD828688004F7D50EE020F480502860A6
:101ED000FEF7C2FD064604E0FEF7BEFD801B0228A9
:101EE0004AD828688004F7D4207840074FD5DFF817
:101EF0003481D8F8001041F48071C8F80010FEF762
:101F0000ABFD064605E000BFFEF7A6FD801B64287A
:101F100032D8D8F80000C005F6D5414EA06860362A
:101F200001280AD008B1052813D0306820F001003C
:101F30003060306820F0040002E0306840F00100BA
:101F40003060A06841F2883A90B1FEF785FD804686
:101F50000AE0306840F004003060EEE7FEF77CFDF8
:101F6000A0EB0801514507D830688007F6D50EE090
:101F7000FEF772FD804607E084E000BFFEF76CFDCF
:101F8000A0EB080151457DD830688007F6D4606A1F
:101F9000F0B3DFF88C80D9F8001008F12008C1F305
:101FA000C20103296FD00228286820F080702860C1
:101FB00003D0FEF751FD044680E0FEF74DFD0646D6
:101FC00005E000BFFEF748FD801B022873D8286893
:101FD0008001F7D4E26A40F2F331386854F8283FC0
:101FE000884340EA021018433860217B4FF4FE0C0E
:101FF00022894FF0FE47208A4902267D521E401E4C
:10200000A1F5007189B20CEA0040C2F3080200E0B9
:1020100081E01143761E0143014807EA066203E0AE
:1020200010440258004802581C3011433B4AC8F87B
:102030000010016821F00101016011684FF6F87687
:10204000236AB14341EAC30111600168A26921F02A
:102050000C01114301600168E26921F002011143A2
:102060000160016841F480310160016841F4003190
:102070000160016841F480210160016841F00101C3
:10208000016001E017E01DE0286840F080702860E2
:10209000FEF7E2FC044604E0FEF7DEFC001B02282B
:1020A00009D828688001F7D535E000BFFEF7D4FCD9
:1020B000001B022802D90320BDE8F09F2868800198
:1020C000F4D428E039680128D8F8000021D0A26AA9
:1020D00001F0030393421CD1E26AC1F305118A4265
:1020E00017D1216BC0F30802491E8A4211D1616BDE
:1020F000C0F34622491E91420BD1A16BC0F30642A8
:10210000491E914205D1E16BC0F30660491E814230
:1021100001D00120D0E70020CEE70000344402586F
:1021200070477047704710B5040003D094F83D0025
:1021300010B107E0012010BD002084F83C002046CB
:1021400000F022F8022084F83D002068211D00F0F4
:102150006FFD012084F8480084F83E0084F83F00B9
:1021600084F8400084F8410084F8420084F8430079
:1021700084F8440084F8450084F8460084F8470059
:1021800084F83D00002010BD7047000090F83D101D
:10219000012901D0012070470B4A022180F83D102F
:1021A0000168CB6843F00103CB600068816811408F
:1021B000062906D0B1F5803F03D0016841F0010146
:1021C000016000207047000007000100704770B5F3
:1021D0000446006800250169C943890715D4C16810
:1021E000C943890711D4EA1E0261012121772068C1
:1021F00080698007204602D0FFF7E8FF04E000F086
:10220000A7F8204600F0A5F8257720680169C943A2
:10221000490717D4C168C943490713D402216FF095
:102220000402026121772068806910F4407F204613
:1022300002D0FFF7CBFF04E000F08AF8204600F060
:1022400088F8257720680169C943090716D4C16851
:10225000C943090712D404216FF0080202612177F3
:102260002068C0698007204602D0FFF7AFFF04E076
:1022700000F06EF8204600F06CF8257720680169C0
:10228000C943C90617D4C168C943C90613D4082174
:102290006FF01002026121772068C06910F4407F5E
:1022A000204602D0FFF792FF04E000F051F82046EC
:1022B00000F04FF8257720680169C943C90708D1A4
:1022C000C168C943C90704D1891E0161204600F0D5
:1022D00041F820680169C943090609D4C168C943A6
:1022E000090605D46FF0800101612046FFF719FF50
:1022F00020680169C943C90509D4C168C9430906F1
:1023000005D46FF4807101612046FFF709FF206852
:102310000169C943490609D4C168C943490605D4BE
:102320006FF040010161204600F01EF8206801694D
:10233000C94389060BD4C168C943890607D46FF025
:10234000200101612046BDE87040FFF7EBBE70BD83
:102350007047704700680349884201D1FEF782BB8D
:102360007047000000140040704730B590F87C10B2
:10237000012918D0012280F87C202421C0F8801087
:102380000022202450F8601B0B680D6823F00053D6
:1023900025F001050D60426050F8601C0B6004627E
:1023A0000277104630BD022030BD704770B504463C
:1023B00090F87C0001281DD0012284F87C20242084
:1023C000C4F8800020680568026822F001020260FB
:1023D0002068826822F060620A438260204600F032
:1023E00093FC2268202100201560C4F8801084F836
:1023F0007C0070BD022070BD70B5044690F87C0072
:1024000001281DD0012284F87C202420C4F88000FB
:1024100020680568026822F0010202602068826874
:1024200022F060420A438260204600F06DFC226880
:10243000202100201560C4F8801084F87C0070BD55
:10244000022070BD70477047704700002DE9F041D1
:1024500003680446002540F60F06D86919689A6893
:10246000304209D186067DD501F0200602F0805762
:102470003E4377D0E16E9EE0614E624F16400F40C2
:1024800037436FD0C70709D0CF0507D501271F6293
:10249000D4F8883043F00103C4F8883083070AD5A4
:1024A000D30708D0276802233B62D4F8883043F072
:1024B0000403C4F8883043070AD5D30708D0276837
:1024C00004233B62D4F8883043F00203C4F8883018
:1024D00003070CD501F02003334308D026680823F6
:1024E0003362D4F8883043F00803C4F88830030519
:1024F0000BD54B0109D526684FF400633362D4F83D
:10250000883043F02003C4F88830D4F88830002B9A
:1025100034D0800609D501F0200002F08051084334
:1025200003D0E16E09B1204688472168D4F88800BD
:102530008968490602D410F0280F21D0204600F007
:10254000B3FC20688168490615D5816821F04001F7
:102550008160A06F78B12C490165A06FFEF716F875
:10256000002800E012E009D0A06F016D00E02046D5
:10257000BDE8F04108472046FFF766FFBDE8F0815F
:102580002046FFF761FFC4F88850F7E7C60209D577
:10259000560207D54FF4801018622046BDE8F0417E
:1025A000FFF751BF060609D501F0800602F40002CC
:1025B000164303D0216F0029D9D1DFE742060DD59C
:1025C0004A060BD51A682021204622F040021A60E4
:1025D000C4F88010256700F09FF8CFE7020206D507
:1025E0004A0004D52046BDE8F041FFF72BBFC001EB
:1025F000C4D50029C2DA2046BDE8F041FFF7D5BEB8
:102600000100001020010004932E000810B5040002
:1026100003D0D4F8800010B107E0012010BD0020E5
:1026200084F87C00204600F027F82420C4F88000BD
:102630002068016821F001010160204600F048FC9B
:102640000128EBD0A06A10B1204600F08FFB206873
:10265000416821F4904141602068816821F02A019D
:1026600081602068016841F0010101602046BDE8F9
:10267000104000F0DFBB000070B586B004461421A6
:102680006846FDF7F1FE20492068884239D11F488D
:10269000016841F400210160006800F40020059009
:1026A0001A480838016841F480710160016801F43A
:1026B00080710591016841F0010101600068022507
:1026C0000024694600F001000590082628020090C9
:1026D000CDE901540E48CDE90346FEF799F80120F3
:1026E0000090CDE901540B486946CDE90346FEF759
:1026F0008FF8002234201146FEF740FA3420FEF70E
:102700002FFA06B070BD0000004C0040E8440258AB
:1027100000200258000002587047FEE7FDF702BF94
:10272000FDF705BFFDF708BFFDF714BF002010B58A
:10273000FDF726FF8168BDE8104008472DE9F0430A
:1027400087B014216846FDF78FFE2348016841F0E9
:1027500004010160016801F004010591016841F480
:1027600080710160016801F480710591016841F098
:1027700080010160016801F080010591016841F06C
:102780000101016000680122DFF85080D60300F0EB
:102790000100314605904046FEF752F90122DFF86C
:1027A0004090170248463946FEF74AF90124694627
:1027B00000254046CDE90064CDE90245FEF728F842
:1027C000CDE90074CDE9024569464846FEF720F898
:1027D00007B0BDE8F0830000E0440258000802584A
:1027E000002002581848002110B5164C0C224FF456
:1027F000E1330460C0E90131C160C0E904128161C4
:10280000C161016241628162FFF700FF08B1FDF71B
:10281000B1FE0D480021FFF7EFFD08B1FDF7AAFE5C
:1028200009480021FFF7C2FD08B1FDF7A3FE0648E5
:10283000FFF79BFD002803D0BDE81040FDF79ABECE
:1028400010BD0000004C004034000024FEE770473B
:10285000704700002DE9F047454D044689464FF08A
:10286000000A2868C04380070AD0414E283E3068DD
:1028700020F080603060FEF7EFF80746B04608E0D1
:102880000120BDE8F08700BFFEF7E6F8C01B022874
:1028900067D8D8F800000001F6D4206829684FF402
:1028A000FE0721F47C313E0241EA00302860207AA4
:1028B000A389B4F804C040022D4D2D495B1E227C33
:1028C000ACF1010C1035091DA0F5007080B2521E4C
:1028D000CCF3080C07EA034340EA0C00184306EA6D
:1028E0000262104328600868626920F0C00010434B
:1028F00008600A68A06922F0200202430A60281DCD
:102900000A6822F010020A6002684FF6F873E46960
:102910009A4342EAC40202600868B9F1000F40F02D
:1029200010020A6011D00868B9F1010F11D040F40B
:1029300000100860D8F80000444640F08060C8F8F5
:102940000000FEF789F805460DE0086840F4002015
:10295000EFE740F48010ECE7FEF77EF8401B02281A
:1029600001D903208DE720680001F5D5504688E79E
:10297000284402582DE9F047454D044689464FF05A
:10298000000A2868C04380070AD0414E283E3068BC
:1029900020F080503060FEF75FF80746B04608E050
:1029A0000120BDE8F08700BFFEF756F8C01B0228E3
:1029B00067D8D8F800008000F6D4208829684FF442
:1029C000FE0721F07C713E0241EA00502860207A27
:1029D000A389B4F804C040022D4D2D495B1E227C12
:1029E000ACF1010C1835091DA0F5007080B2521E23
:1029F000CCF3080C07EA034340EA0C00184306EA4C
:102A00000262104328600868626920F44060104345
:102A100008600A68A06922F4007202430A60281D57
:102A20000A6822F480720A6002684FF6F873E4695B
:102A30009A4342EAC40202600868B9F1000F40F408
:102A400080720A6011D00868B9F1010F11D040F00E
:102A500080700860D8F80000444640F08050C8F804
:102A60000000FDF7F9FF05460DE0086840F480001E
:102A7000EFE740F40000ECE7FDF7EEFF401B022813
:102A800001D903208DE720688000F5D5504688E7FE
:102A9000284402587047704770B5CCB04C212FA81D
:102AA000FDF7E2FC202142A8FDF7DEFCBC216846D0
:102AB000FDF7DAFC0220FEF793F81F4800251F49B6
:102AC000026842F44042026002680A6842F0010271
:102AD0000A60096801F001014A9101688904FCD586
:102AE000052002243894C021CDE939400123CDE9E5
:102AF0003B1408263D941A043E94CDE93F65419568
:102B00002FA8CDE92F32FFF787F840203F2103019E
:102B1000CDE945600322CDE9470342AB499042A885
:102B200083E826000421FEF739FE68461D950094CF
:102B3000FEF7D6F94CB070BD184802582C04005866
:102B40002E48F0B52E4A016841F47001016010680A
:102B500000F00F00072804D2106820F00F00C01DFD
:102B6000106028490020274C10340B68264D43F094
:102B700001030B6020600B682B400B60136803F0AF
:102B80000F03072B04D9136823F00F03DB1D136019
:102B90001C4C1E4A18341E4B261D371D2060194C34
:102BA0001C4D28343060261D3860371D23603B1DC6
:102BB00035601C1D3A60251D2E1D1860331D2260D6
:102BC0002860326018600A680E4B134C22F4802291
:102BD00060330A60186020686FF30F00B0F1005F87
:102BE00003D20E490120C1F8080143F2D2000C497A
:102BF000024B4A03803B08601A60F0BD88ED00E09C
:102C000000200052004402587FEDF6EA80020101E4
:102C1000000202020000FF010010005C0080005171
:102C2000004000520148FFF7D2BA0000C000002463
:102C30002DE9F047274B4FF0804A274D0268984214
:102C4000264E274F274C09D0504507D0A84205D023
:102C5000B04203D0B84201D0A04205D1D1F804C09F
:102C600022F070024CEA0202DFF87CC0DFF87C80C0
:102C70009842DFF87C900FD050450DD0A8420BD081
:102C8000B04209D0B84207D0A04205D0604503D079
:102C9000404501D0484503D1CD6822F440722A4313
:102CA0004D6922F080022A43026098428A68C2621B
:102CB0000A68826207D0A04205D0604503D0404533
:102CC00001D0484501D10969016301214161BDE895
:102CD000F0870000000001400004004000080040B0
:102CE000000C00400004014000400140004401404D
:102CF00000480140FFF716BDFFF716BD0148FFF77A
:102D0000A5BB0000340000243FB514A1D1E9002385
:102D100014A1CDE90023D1E90021CDE90221416EC2
:102D2000B9B1016802AC8A688968C2F34262490F8E
:102D30001DF80150615C2D01B5FBF1F1A0F86A109E
:102D40001DF80210A25C0901B1FBF2F1A0F86810B5
:102D50003FBD0121A0F86A10F8E70000010101035E
:102D600007010000080402040801010190F828107E
:102D7000C90706D00168C36A4A6822F400321A43C0
:102D80004A6090F82810890706D50168036B4A68E5
:102D900022F480321A434A6090F82810490706D579
:102DA0000168436B4A6822F480221A434A6090F813
:102DB0002810090706D50168836B4A6822F400428F
:102DC0001A434A6090F82810C90606D50168C36BFB
:102DD0008A6822F480521A438A6090F82810890683
:102DE00006D50168036C8A6822F400521A438A608F
:102DF00090F82810490611D50168436C4A6822F4FE
:102E000080121A434A60416CB1F5801F06D10168F7
:102E1000836C4A6822F4C0021A434A6090F8281072
:102E2000090606D50168C26C486820F400201043EA
:102E300048607047F8B500260446C0F88860FDF782
:102E40000BFE054620686FF07E470068000708D536
:102E500000222B464FF400112046009700F010FA94
:102E600060B92068006840070AD500222B464FF45D
:102E700080012046009700F003FA08B10320F8BD56
:102E80002020C4F8800084F87C60C4F8840000200E
:102E9000F8BD10B5806B0021A0F85E10A0F85610A8
:102EA000FFF7D2FA10BD000030B501682023074DAE
:102EB00000240A6822F490720A6001688A682A4035
:102EC0008A60C0F88430C46630BD0000FEFFFFEFAA
:102ED0002DE9F04304468068D94F87B02268D4E9D1
:102EE0000465E369616E304316681D432843D54B82
:102EF000002501433E400E4316602068E2684168A9
:102F000021F44051114341602268A1699A4201D0E5
:102F1000206A01439668DFF830C3CC4FCC4806EAFC
:102F20000C060E4396602168666ACA6A22F00F0298
:102F30003243CA622268BA420ED1006800F03800FB
:102F4000182873D047DCB8B3082879D010286FD17F
:102F500078E028287ED17BE0BE498A4209D100680A
:102F600000F00700062875D2DFE800F0546A6C6EA6
:102F70007072B9498A4209D1006800F0070006283A
:102F800068D2DFE800F0475D5F616365B3498A425C
:102F900009D1006800F0070006285BD2DFE800F0E6
:102FA0003A5052545658AE498A420BD1006800F04C
:102FB000070006284ED200E010E0DFE800F02B41C9
:102FC00043454749A7498A420AD1006800F03800C2
:102FD000182839D0B7DD2028BBD13CE001203AE0E9
:102FE000A1498A4209D1006800F00700062831D2C1
:102FF000DFE800F01026282A2C2E9C498A420BD1AB
:10300000006800F00700062824D2DFE800F003196A
:103010001B1D1F2100201EE09A421BD18C48001D61
:10302000006800F00700062814D202E00CE007E078
:1030300010E0DFE800F0030507090B0D02200AE0AD
:10304000042008E0082006E0102004E0202002E030
:10305000402000E080208649DFF818829A42864AA4
:103060004FF400434FEA21174FF000064ED11028CD
:103070001AD006DC022809D004280BD008287DD1FC
:103080000DE020283ED0402878D13DE0FDF7D2FD6C
:10309000014610E06846FDF7DFFD01990BE003A84B
:1030A000FDF77CFE049906E01068800604D51068E0
:1030B000C0F3C100C140C1B3606A676838F810202E
:1030C00007EB4703B1FBF2F0834257D8B0EB073F61
:1030D00054D8002308461946FDF74FF909020202A9
:1030E00041EA106170084FEA370010183A46714102
:1030F0000023FDF742F9614AA0F5407191423DD8A5
:1031000021684CE03946D7E71946D5E7D4F81CC00A
:103110004FF6EF799C4552D108281AD006DC60B1F1
:1031200001280DD0042829D10EE039E0102815D04F
:10313000202840D040287CD13FE0FEF7ADFC01E0E4
:10314000FEF7BCFC014610E06846FDF785FD0199DD
:103150000BE003A8FDF722FE049906E01068800644
:1031600004D51068C0F3C100C140C9B1636A60688A
:1031700038F81330B1FBF3F1490000E059E001EBFE
:103180005001B1FBF0F080B2A0F11001494550D8D8
:103190004FF6F0732168C0F3420218401043C86034
:1031A0000120A4F86A00A4F868002846E6662667AD
:1031B00007B0BDE8F0833946D8E71946D6E70828B6
:1031C00019D005DC58B101280CD0042831D10DE00C
:1031D000102815D020282ED040282AD12DE0FEF727
:1031E0005BFC01E0FEF76AFC014610E06846FDF773
:1031F00033FD01990BE003A8FDF7D0FD049906E02B
:103200001068800605D51068C0F3C100C1400029D0
:10321000C6D0636A606838F81330B1FBF3F101EB94
:103220005001B1FBF0F080B2A0F1100149457FF6EA
:1032300067AF0125B4E73946EBE71946E9E7000037
:10324000F369FFCF000C0058FFF4FF11001001409C
:10325000544402580044004000480040004C0040E4
:10326000005000400014014000780040007C004005
:103270000090D0036A33000800440258FFFC0F009E
:103280002DE9F0479A4617460E460446089D4FF032
:1032900000094FF0200839E0681C37D0FDF7DCFB4F
:1032A000A0EB0A00A84222D80DB3206801684907A4
:1032B0002CD5C069C043000528D423684FF40061B1
:1032C000196221680B6823F4D0730B6021688B6846
:1032D00023F001038B60C4F88080C4F88480C4F8B4
:1032E000888000BF032084F87C90BDE8F0872168C7
:1032F0000B6823F4D0730B6021688B6823F0010303
:103300008B60C4F88080C4F88480EBE72068C069D3
:1033100036EA000004D00020B842BDD00020E4E727
:103320000120F9E7FEE7090700284FEA116104DBF5
:1033300000F1E02080F80014704700F00F0000F169
:10334000E02080F8141D70477047FDF793FBFFF7EE
:10335000A3FBFFF7F3F9FFF745FAFFF7E7F9FEE7FD
:103360004FF04070E1EE100A7047010002000400C7
:10337000060008000A000C00100020004000800039
:10338000000100000000010203040102030406071B
:10339000080900004C45445F420000004C45445F72
:1033A00052000000C4330008000000243400000074
:1033B000D4020008F8330008340000243C07000061
:1033C000F0020008010000001000000000000000F2
:1033D0000090D0030090D0039C3300087B050008C8
:1033E000F92C0008F52C0008943300087705000834
:0833F0007705000877050008CD
:040000050800029954
:00000001FF
